S01500004144435F4374726C725F3132302E73726563EF
S113000018EB0120E9020000E5020000E50200000F
S1130010E5020000E5020000E50200000000000027
S1130020000000000000000000000000614100002A
S1130030E502000000000000F14100005142000010
S1130040E5020000E5020000E5020000E502000010
S1130050E5020000E5020000E5020000E502000000
S1130060E5020000E5020000E5020000E5020000F0
S1130070E5020000E5020000E5020000E5020000E0
S1130080E5020000E5020000E5020000E5020000D0
S1130090E5020000E5020000E5020000E5020000C0
S11300A0E5020000E5020000E5020000E5020000B0
S11300B0E5020000E5220000F922000039200000DA
S11300C045200000512000005D2000006920000050
S11300D0E5020000E5020000E5020000E502000080
S11300E0E5020000E502000000000000000000003E
S11300F00000000055240000B9280000CD280000AD
S1130100E1280000F5280000092900001D2900004D
S11301103129000045290000592900006D290000FB
S11301208129000095290000A9290000BD290000AB
S1130130D1290000E5290000F92900000D2A00005A
S1130140212A0000352A0000492A00005D2A000007
S1130150712A0000852A0000992A0000AD2A0000B7
S1130160C12A0000D52A0000E5020000E5020000D3
S1130170E5020000E5020000E5020000E5020000DF
S1130180E93B0000F53B0000013C00000D3C000091
S1130190D1200000E5020000E5020000E5020000B5
S11301A0E5020000E5020000E5020000E5020000AF
S11301B0E5020000E5020000E5020000E50200009F
S11301C0E5020000E5020000E5020000E50200008F
S11301D0E5020000E5020000E5020000E50200007F
S11301E0E5020000E5020000E5020000E50200006F
S11301F0E5020000E5020000E5020000E50200005F
S1130200E5020000E5020000E5020000E50200004E
S1130210E5020000E5020000E5020000E50200003E
S1130220E5020000E5020000E5020000E50200002E
S1130230E5020000E5020000E5020000E50200001E
S1130240E5020000E5020000E5020000E50200000E
S1130250E5020000E5020000E5020000E5020000FE
S1130260E502000010B5054C237833B9044B13B1F3
S11302700448AFF300800123237010BD80000020E8
S113028000000000587200000C4B43B10C480D49AB
S113029010B5AFF300800C48036823B910BD0A48B9
S11302A0036833B97047094B002BF7D0BDE8104001
S11302B01847064B002BF5D0184700BF000000007C
S11302C058720000840000205872000000000000F2
S11302D008B5024B9847024B984708BDD50A000061
S11302E0790E0000FEE7000008B51C4B1C4A9A4238
S11302F010D01C4B194A9A420CD2013B9B1A23F092
S1130300030304331344164951F8040B42F8040B55
S11303109A42F9D1144B154A9A420AD2013B9B1ACC
S113032023F0030304331344002142F8041B9342D3
S1130330FBD10F4B0F4A22F07F029A60D3F888203A
S113034042F47002C3F88820BFF34F8FBFF36F8F5E
S1130350094B9847094B9847FEE700BF000000206F
S1130360587200007000002014EB00208000002070
S113037000ED00E0000000007D5C0000453D000051
S1130380024A136943F040031361704700080040B8
S113039008B5034B984703490348044B984708BDE5
S11303A0810300000040004108E50020AD1000007A
S11303B0284B10225A619A6002F180429A624FF0EF
S11303C04041996293F8442002F0FE0242F0010297
S11303D083F8442093F8322002F0F00242F0030242
S11303E083F8322020225A619A6002F180429A6294
S11303F0996293F8452002F0FE0242F0010283F86C
S1130400452093F8322002F00F0242F0300283F8C4
S1130410322040225A6002F1804202F500329A6290
S11304200D4A9A6293F8462002F0FB0283F84620B4
S113043093F8462002F0FE0242F0010283F84620BF
S113044093F8332002F0F00242F0030283F83320E1
S1130450704700BF00800041000002C0064B4022EC
S1130460C3F89C204322C3F88C20044A536943F404
S113047080535361704700BF001C004000080040D7
S113048008B5044B984704490448054B9847054B65
S1130490984708BD5D040000003000403CE60020A1
S11304A079120000B10300000E4B1022C3F884201F
S11304B002F18042C3F8A8204FF04042C3F8A820BC
S11304C093F8C42002F0FE0242F0010283F8C42033
S11304D093F8B22002F0F00242F0010283F8B22055
S11304E0704700BF00800041044A136A43F48073DC
S11304F013624322024BC3F82421704700080040D2
S1130500001C004008B5054B9847054B984700224E
S113051004490548054B984708BD00BFE90400009D
S1130520A90400000020004324E60020850E0000FA
S1130530174B04225A6002F180429A624FF0404104
S1130540996293F8422002F0FE0242F0010283F81D
S1130550422093F8312002F0F00242F0010283F8C5
S1130560312020225A6002F180429A62996293F803
S1130570452002F0FE0242F0010283F8452093F880
S1130580322002F00F0242F0100283F8322070474A
S113059000800041044A136A43F40073136240224A
S11305A0024BC3F82821704700080040001C00409B
S11305B008B5044B984704490448054B9847054B34
S11305C0984708BD950500000024004328E6002054
S11305D09D0F000031050000104B93F8442102F0F8
S11305E0FE0242F0010283F8442193F8322102F022
S11305F0F00242F0020283F8322193F8452102F01E
S1130600FE0242F0010283F8452193F8322102F000
S11306100F0242F0200283F832217047008000412B
S1130620064B4122C3F810214322C3F88C20044A0C
S1130630136A43F004031362704700BF001C0040B8
S11306400008004030B583B00E4B98470E4BC022D3
S113065083F8462383F8472383F8482383F8492300
S11306600A4C002300934FF48073094A0949204639
S1130670094DA8472046094B9847094B984703B0B2
S113068030BD00BF2106000000E100E080E600204C
S113069024E5002000080043D5140000CD15000017
S11306A0D9050000104B93F8C82102F0FE0242F075
S11306B0010283F8C82193F8B42102F0F00242F059
S11306C0020283F8B42193F8C92102F0FE0242F039
S11306D0010283F8C92193F8B42102F00F0242F019
S11306E0200283F8B421704700800041064B402269
S11306F0C3F814214322C3F88C20044A136A43F03C
S113070008031362704700BF001C0040000800404B
S113071008B5054B9847002204490548054B9847FE
S1130720054B984708BD00BFED060000000C0043D0
S1130730CCE60020CD160000A50600001E4B4FF0AD
S113074080729A604FF0804199621C4898625A61A5
S113075093F8582002F0FB0283F8582093F85820AD
S113076002F0FE0242F0010283F8582093F83C2084
S113077002F0F00242F0070283F83C204FF00072CE
S11307809A6099620E4999625A6193F8592002F06D
S1130790FB0283F8592093F8592002F0FE0242F03C
S11307A0010283F8592093F83C2002F00F0242F032
S11307B0700283F83C20704700800041000100C0B3
S11307C0000200C04122074BC3F8A820A3F5A053A0
S11307D01A6942F480621A619A6942F001029A61CC
S11307E0704700BF001C0040074B5A6942F4804226
S11307F05A615A6942F400425A61402203F5A053F7
S1130800C3F8A420704700BF00080040074B9A6952
S113081042F400529A619A6942F480429A614322F6
S113082003F5A053C3F8E820704700BF0008004058
S113083008B5034B9847034B9847034B984708BDAB
S1130840C5070000951900003D070000904B93F880
S1130850552102F0FE0242F0010283F8552193F87B
S11308603A2102F00F0242F0B00283F83A2193F8E1
S1130870502002F0FE0242F0010283F8502093F867
S1130880382002F0F00242F00B0283F8382093F88B
S1130890542002F0FE0242F0010283F8542093F83F
S11308A03A2002F0F00242F00B0283F83A2093F867
S11308B0552002F0FE0242F0010283F8552093F81D
S11308C03A2002F00F0242F0B00283F83A2093F883
S11308D04D2002F0FE0242F0010283F84D2093F80D
S11308E0362002F00F0242F0B00283F8362093F86B
S11308F04C2002F0FE0242F0010283F84C2093F8EF
S1130900362002F0F00242F00B0283F8362093F80E
S11309104F2102F0FE0242F0010283F84F2193F8C6
S1130920372102F00F0242F0B00283F8372193F826
S11309304E2102F0FE0242F0010283F84E2193F8A8
S1130940372102F0F00242F00B0283F8372193F8CA
S1130950522102F0FE0242F0010283F8522193F880
S1130960392102F0F00242F00B0283F8392193F8A6
S1130970542102F0FE0242F0010283F8542193F85C
S11309803A2102F0F00242F00B0283F83A2193F884
S11309904F2002F0FE0242F0010283F84F2093F848
S11309A0372002F00F0242F0B00283F8372093F8A8
S11309B0522002F0FE0242F0010283F8522093F822
S11309C0392002F0F00242F00B0283F8392093F848
S11309D0532002F0FE0242F0010283F8532093F800
S11309E0392002F00F0242F0B00283F8392093F864
S11309F0502102F0FE0242F0010283F8502193F8E4
S1130A00382102F0F00242F00B0283F8382193F807
S1130A10512102F0FE0242F0010283F8512193F8C1
S1130A20382102F00F0242F0B00283F8382193F823
S1130A304E2002F0FE0242F0010283F84E2093F8A9
S1130A40372002F0F00242F00B0283F8372093F8CB
S1130A50512002F0FE0242F0010283F8512093F883
S1130A60382002F00F0242F0B00283F8382093F8E5
S1130A70532102F0FE0242F0010283F8532193F85D
S1130A80392102F00F0242F0B00283F83921704795
S1130A9000800041044B1A6942F480421A61DA6909
S1130AA042F00402DA6170470008004008B5044BC4
S1130AB0984704490448054B9847054B984708BD97
S1130AC0950A000000080042D8E600202112000028
S1130AD04D0800002DE9F843AF4B9847AF4C402335
S1130AE0C4F81431C4F8043103F1804303F500332E
S1130AF0C4F82831AA48C4F8280194F8463103F010
S1130B00FE0384F846310823A361A36003F1804304
S1130B10A3624FF04045A56294F8433003F0FE030E
S1130B2084F843308022A261A2609E4BA362A56236
S1130B3094F8473003F0FE0384F847304FF4800301
S1130B40A361A3604FF08043A3629749A16294F824
S1130B50561001F0FE0184F856104FF40001A16113
S1130B60A160A362914FA76294F8576006F0FE0655
S1130B7084F857601026C4F89860C4F8886006F1B9
S1130B808046C4F8A860C4F8A85094F8C46006F07D
S1130B90FE0684F8C4602026C4F89460C4F8886013
S1130BA006F18046C4F8A860C4F8A85094F8C5605B
S1130BB006F0FE0684F8C5604FF40046C4F8986059
S1130BC0C4F8886006F18046C4F8A860C4F8A85048
S1130BD094F8CF6006F0FE0684F8CF60C4F8941051
S1130BE0C4F88810C4F8A830C4F8A87094F8D710D2
S1130BF001F0FE0184F8D710C4F804216C49C4F84C
S1130C002811C4F82801C4F8042194F8471141F0CC
S1130C10040184F84711C4F8182194F8472102F01C
S1130C20FE0284F847214FF40052C4F80421614ABB
S1130C30C4F82821C4F8280194F84D2102F0FB02DD
S1130C4084F84D2194F84D2102F0FE0284F84D21E0
S1130C504FF08072C4F81821C4F80821C4F8283170
S1130C60554AC4F8282194F8582102F0FE0284F869
S1130C7058214FF08062C4F81821C4F80821C4F840
S1130C8028314E4BC4F8283194F85A3103F0FE034E
S1130C9084F85A310123C4F89431C4F8883103F13B
S1130CA08043C4F8A831C4F8A85194F8C03103F0C3
S1130CB0FE0384F8C031424B9847424B9847424B5D
S1130CC09847424B9847424B9847424B9847424B70
S1130CD09847424E3046424B984707463046414B70
S1130CE0984781464048DFF83081C047791E4B461B
S1130CF03E4A09FB01F130463D4EB0473D48C047EE
S1130D003D4B98474FF48073A3603C4AA262A562AE
S1130D106361636094F8482042F0040284F8482038
S1130D20A36194F8483003F0FE0343F0010384F810
S1130D30483094F8343003F0F00343F0040384F8AB
S1130D4034304FF40073A3602D4AA262A56263613C
S1130D50636094F8492042F0040284F84920A361B6
S1130D6094F8493003F0FE0343F0010384F849305A
S1130D7094F8343003F00F0343F0400384F8343024
S1130D80204B9847204B9847204B9847204B984737
S1130D90204B9847BDE8F883391D000000800041CE
S1130DA0000002C080000040400000C0800000C07D
S1130DB08000024000200240000100C0000400C086
S1130DC0910300008104000005050000B105000046
S1130DD04506000011070000693F000008E50020F7
S1130DE0B722000099110000086D00009C0000204B
S1130DF0F5100000206D0000E9070000000100402C
S1130E0000020040792D00000D080000292E00008A
S1130E1031080000AD0A0000ED5C000070B50D461D
S1130E201646044660B169B11F2A8CBF0020012018
S1130E302A220549054B98472560A680002070BDED
S1130E400020F5E70020F3E7286D0000FD190000FD
S1130E5010B5054C2046054B98470122214604480D
S1130E60044B984710BD00BFD8E600205112000083
S1130E7000E500201D0E000008B5014B984708BD91
S1130E80510E000038B50C46054658B1081C18BF71
S1130E90012039220449054B984721462846044B32
S1130EA0984738BD0020F4E7486D0000FD190000A4
S1130EB0AD1C000038B50D4604464E2205490030ED
S1130EC018BF0120044B984729462046034B9847F6
S1130ED0002038BD486D0000FD190000E51C00002D
S1130EE02DE9F84F0D4691469A468046E0B1EAB1A5
S1130EF0181C18BF01201C4F672239461B4EB047EF
S1130F00444640461A4B984780469AFBF0F008FB4B
S1130F1010A069223946B0FA80F04009B047002792
S1130F20DFF858B0134E07E00020E4E70020E2E7C2
S1130F304744BFB2BA4514D92046D847294620466B
S1130F40B0470028FAD0294620460B4B984709F8A9
S1130F500700B8F1010FEBD909EB0703000A587039
S1130F60E6E73846BDE8F88F486D0000FD1900003B
S1130F70FB1C00000D1D00002F1D0000191D0000AA
S1130F80EFF31083036072B6BFF35F8F7047BFF354
S1130F905F8F036883F310887047000038B50D46EF
S1130FA0044698B1081C18BF012032220849094B95
S1130FB0984729462046084B9847024620B9002303
S1130FC06360A360E3602361104638BD0020ECE752
S1130FD0646D0000FD1900001D1E000038B50C46AC
S1130FE0054668B101298CBF002001205222054921
S1130FF0054B984721462846044B9847002038BDA6
S11310000020F3E7646D0000FD190000491E000094
S11310102DE9F0410D4690461F46044640B3012990
S113102021D900206A221849184B98472646294698
S11310302046174B9847F8B104EBC504C4F8048064
S1131040A760EFB1134F63682A4619883046B84742
S1131050636802336360A368013BA360002BF2D191
S11310600020BDE8F0812AB1181C18BF0120D9E77F
S11310700020D7E70020D5E76FF01C00BDE8F08121
S11310800020BDE8F08100BF646D0000FD19000080
S1131090B51E0000D51E000008B5436903B198478A
S11310A008BD08B5836903B1984708BD38B50D4636
S11310B0044690B1081C18BF012038220849094B86
S11310C0984729462046084B9847034618B9074ACB
S11310D02260074A6260184638BD0020EDE700BF71
S11310E0806D0000FD1900003922000099100000F5
S11310F0A31000002DE9F8430D4690461E46044611
S1131100F0B1FAB143B3012056221E491E4B984751
S1131110A14620461D4B9847074620461C4B98473E
S113112000FB07F0A8420FD37319984210D333463B
S1131130424629464846174CA0470020BDE8F8839C
S11311400020E1E70020DFE76FF00D00BDE8F88341
S11311506FF00D00BDE8F88356220A4900200A4BBF
S11311609847A1462046094B984707462046084B16
S1131170984700FB07F08542D9D96FF00D00BDE810
S1131180F88300BF806D0000FD190000B12200004B
S1131190B7220000BF22000010B50446F72205491B
S11311A0003018BF0120044B98472046034B984752
S11311B010BD00BF806D0000FD190000B1220000C9
S11311C070B50D461646044660B1081C18BF0120D0
S11311D034220549054B9847236832462946204660
S11311E0984770BD0020F3E7986D0000FD190000DA
S11311F070B50D461646044660B1081C18BF0120A0
S11312003D220549054B98476368324629462046E6
S1131210984770BD0020F3E7986D0000FD190000A9
S113122038B50C46054658B1081C18BF01203122B8
S11312300449054B984721462846044B984738BD36
S11312400020F4E7AC6D0000FD1900002D21000022
S113125010B5044645220549003018BF0120044B4F
S113126098472046034B984710BD00BFAC6D000063
S1131270FD190000F121000038B50D460446B8B14F
S1131280081C18BF012040220A490B4B98472046EE
S113129040F8045F2946094B9847002807DB4FF4C0
S11312A00043A382064B2361064BE360002038BD54
S11312B00020E8E7C86D0000FD190000E92A0000DD
S11312C0451300000913000030B585B00C460546EF
S11312D090B1081C18BF0120B3220849084B984755
S11312E02368019363680293A368039301A9281DEB
S11312F0044B984705B030BD0020EDE7C86D0000F1
S1131300FD190000992C000070B584B00E461546F6
S11313100446A3220849003018BF0120074B984710
S1131320002302930196039501A9A4F10C00044B38
S1131330984704B070BD00BFC86D0000FD190000DF
S1131340C912000070B584B00E46154604468722C3
S11313500849003018BF0120074B98470296002324
S11313600193039501A9A4F10C00044B984704B020
S113137070BD00BFC86D0000FD190000C912000057
S113138008B53C30014B984708BD00BFC13F000081
S113139008B54030014B984708BD00BFC13F00006D
S11313A008B50846014B984708BD00BFF93D000049
S11313B010B50446038F428F9A4209D0426B591CE0
S11313C00187D15C044B98472046044B984710BDD5
S11313D0034B984710BD00BF0F2800003B280000B6
S11313E04328000038B504461546C163A4F84220DA
S11313F00023A0F840300830064B98474FF0FF31E7
S113140004F14800044B984700280CBF28466FF0AD
S1131410070038BD3B280000054000002DE9F041DD
S113142082B0044690460E46081C18BF012040F2C4
S113143025122149214B984704F124052846204BC5
S11314409847404513D3B8F1000F0CD0344608F147
S1131450FF339BB201331E441A4F21462846B84736
S11314600134B442F9D1404602B0BDE8F08101A88C
S1131470154B984700232387A4F83A806663104EDF
S1131480104F06E0616B238F5A1C228719442846AB
S1131490B8472846B0470028F4D101A80B4B984719
S11314A04FF0FF3104F14400094B98470028DAD08B
S11314B06FF00700D8E700BFE46D0000FD190000DD
S11314C0991A0000551A0000810F00008F0F0000C8
S11314D0054000002DE9F8430F4615461E46044614
S11314E0002846D0002946D0002A46D0181C18BF30
S11314F0012041222849294B98473246294604F1C4
S11315002400274B9847002843D104F144060021C6
S11315103046244B9847051E28DB04F14809002176
S11315204846204B9847051E29DB04F10808394634
S113153040461D4B9847054628BB00236363238719
S113154063871A4B63601A4B23601A4BA3601A4BD0
S1131550E3601A4B23611A4B636101221146404632
S1131560184CA047012203214046A0472846BDE865
S1131570F8830020BDE70020BBE70020B9E7484618
S1131580114B9847F2E748460F4CA0473046A04716
S1131590ECE76FF00C05E9E7E46D0000FD190000CD
S11315A0051A0000893F0000652700001D14000093
S11315B0E5130000B1130000A11300009113000013
S11315C0811300004D2800002540000010B504469A
S11315D07C220649003018BF0120054B984704F1CE
S11315E00800044B9847002010BD00BFE46D0000C4
S11315F0FD190000F52700002DE9F8430F46904639
S1131600044628B331B3101C18BF0120F12212493B
S1131610124B98470834124D2046A8470028FBD0A7
S1131620013F0026DFF840900D4D17F8011F2046BA
S1131630C8472046A8470028FBD001364645F4D3C6
S1131640084D2046A8470028FBD03046BDE8F88363
S11316500020DBE70020D9E7006E0000FD19000040
S11316601D28000027280000092800002DE9F84360
S11316700F4690460446E0B1E9B1101C18BF0120A2
S11316804FF486720D490E4B9847013F00260834EB
S11316900C4DDFF834902046A8470028FBD02046A4
S11316A0C84707F8010F01364645F4D33046BDE874
S11316B0F8830020E4E70020E2E700BF006E0000AA
S11316C0FD190000312800001528000038B50D462A
S11316D0044698B1081C18BF012034220849094B5C
S11316E09847294604F10800074B9847034618B960
S11316F0064A6260064A2260184638BD0020ECE7BC
S1131700006E0000FD190000392700006D1600006E
S1131710F915000010B5044653220649003018BFDD
S11317200120054B984704F10800044B984700201A
S113173010BD00BF006E0000FD190000E12700008D
S11317400F4B5978884218D030B41A46002300F061
S11317500F0507E001335BB2042B09D02032517826
S1131760814207D01478002CF4D18D42F2D101E0EB
S11317704FF0FF33184630BC7047002318467047BB
S11317809C0200200020704738B504460D46094BE2
S11317909847094B03EB40139B78032B01D000209F
S11317A038BD054B03EB4010836929462046984712
S11317B038BD00BF411700009C020020F0B585B081
S11317C006460D4617464D4B98470446002D5BD1FF
S11317D04B4A4301D1180020C870D35C73B1484B05
S11317E003EB441301229A70454800EB4410C3698B
S11317F03A46C1783046984705B0F0BD8B78032B44
S11318000BD03F4800EB44121446D3690C3200213C
S1131810607898470223A370EEE70B4691F90C50C9
S11318200A46CE690C3201215878B047A0B1344B36
S113183003EB441305229A700222DA70002D09DBAF
S11318402F4800EB4410407840F0800001212D4BDC
S11318509847D1E75878F9E7294800EB4410042366
S1131860837043780022019202929542ACBF43F008
S1131870800303F00F038DF80C3001238DF80D3035
S113188001A8214B9847B7E7012D0AD0022D1CD09F
S1131890032D2AD01A4B03EB401306229A70DA70F8
S11318A0A2E7174A4301D1180220C870D35C2BB1B8
S11318B0134B03EB441305229A7095E70B4698707B
S11318C0002130460F4B98478EE70D4A4301D1184B
S11318D00420C870D35C2BB1094B03EB44130122E1
S11318E09A7081E702238B7086E7054B03EB401364
S11318F000229A700522DA7076E700BF41170000D3
S11319009C02002031380000D93900002DE9F04153
S113191005461C4B984706461B4C04EB40140C34FC
S113192021462846194B9847C0B2082809D00121FE
S11319302846174CA047012145F08000A047BDE888
S1131940F08100212846124FB84745F08008002155
S11319504046B8470C4B03EB461301229A705B696F
S113196021462846984708B1BDE8F081064B03EBB1
S113197046160523B37001212846B8470121404685
S1131980B847F1E7411700009C02002079390000B4
S11319903138000010B5114B984700281CDB104C5F
S11319A08022002120460F4B9847234604F18000F3
S11319B0FF210D4A59705A619A61DA6120338342DA
S11319C0F8D10A4900200A4CA0470A490120A0473F
S11319D009490220A047002010BD00BF3537000090
S11319E09C020020DB5C0000851700000D1900003C
S11319F0B93B000089170000BD17000000B900BE04
S1131A007047000070B50E461546044678B181B1A2
S1131A10A2B1012028220D490D4B98476B1E1D428F
S1131A2009D163600020A060E060266070BD0020E2
S1131A30F0E70020EEE76FF00C0070BD28220349A8
S1131A400020034B98476B1EEBE700BF1C6E0000A1
S1131A50FD19000038B50D460446A0B1081C18BF96
S1131A60012040220A490B4B9847A368E2689A4236
S1131A700BD0626813402268D35C2B70A3680133D7
S1131A80A360002038BD0020EBE76FF0090038BDEB
S1131A901C6E0000FD19000010B5044667220549BC
S1131AA0003018BF0120044B9847E068A368C01AAF
S1131AB010BD00BF1C6E0000FD1900000346064A5D
S1131AC0126822B1044A1068034413607047034942
S1131AD0014A1160F6E700BF1C03002018EB012047
S1131AE04FF0FF3070474FF400534B6000207047B5
S1131AF0012070470020704710B45E4B984200F0FC
S1131B009C805D4B984200F0A6800022036B13F08A
S1131B10010F1BD1036B13F0030FFBD1038813F0E8
S1131B20020F0DD0038823F002031B041B0C038057
S1131B30036B13F0030FFBD1036B13F0020FFBD104
S1131B4001230380036B13F0030FFBD1036B13F02A
S1131B50010FFBD1A0F848201623484A03FB0123B8
S1131B609B88C380036BC3F30B03002BFAD11623AA
S1131B70424A03FB01239B790372036BC3F30B03F8
S1131B80002BFAD116233D4A03FB0123DA79827034
S1131B901B898380036BC3F30B03002BFAD1162339
S1131BA0364A03FB01239B7A8372036BC3F30B0353
S1131BB0002BFAD11623314A03FB0123DB7AC372CB
S1131BC0036BC3F30B03002BFAD116232B4A03FB3D
S1131BD001239B898381036B13F0800FFBD11623B0
S1131BE0264A03FB0123DB89C381036B13F4807F43
S1131BF0FBD11623214A03FB01231B8A0382036BB7
S1131C0013F4007FFBD116231C4A03FB01235B8AD8
S1131C104382036B13F4806FFBD11622174B02FB34
S1131C2001310B7DC3704B880380036B13F0030FEA
S1131C30FBD100205DF8044B70474FF080131B6804
S1131C40DA0002F4E0621C0904F070042243C3F3D6
S1131C5082031A435AE74FF080131B68DA0A02F42E
S1131C60E0629C0C04F070042243C3F302431A4361
S1131C704CE700BF001C004300200043406E0000FE
S1131C8000F13D40A0F5E050C0F38720012807D0C3
S1131C9008B5882203490020034B9847002008BD5B
S1131CA000207047586E0000FD19000038B50C463E
S1131CB00546D9220749003018BF0120064B984732
S1131CC02C602046054B984701462046044B984714
S1131CD038BD00BF586E0000FD190000811C0000D3
S1131CE0F91A0000026813889BB243F002031380C0
S1131CF0136B13F0030FFBD170470368DB88C3F346
S1131D00C103032B0CBF012002207047036893F822
S1131D102E0000F0010070470268137D43F00203B7
S1131D201375136BC3F30B03002BFAD170470368CD
S1131D30B3F8400080B2704710B50D4A13889BB2C7
S1131D4013800C4B98470C4B98470C4B9847082032
S1131D500B4CA0470B4B984740F6F770A0470A4A34
S1131D60136943F400731361084B984710BD00BF17
S1131D70004000410D230000212300000122000047
S1131D807520000025230000000800405D1F0000AE
S1131D9010B50446E5221E491E48844214BF0020A3
S1131DA001201D4B9847A36813F0010F19D1A368B4
S1131DB013F0030FFBD1237813F0020F0BD0237819
S1131DC003F0FD032370A36813F0030FFBD1A36892
S1131DD013F0020FFBD101232370A36813F0030F48
S1131DE0FBD1A36813F0010FFBD100236370A37030
S1131DF0A381A36813F0020FFBD10023E381A3683E
S1131E0013F0020FFBD101232376002010BD00BF85
S1131E10706E000000240043FD19000038B50C4624
S1131E20054653220549003018BF0120044B98474A
S1131E302C602046034B984738BD00BF706E0000ED
S1131E40FD190000911D000038B50D4604684FF4DB
S1131E5086721649012D8CBF00200120144B98472F
S1131E60237803F0FD032370A36813F0030FFBD161
S1131E7004EB450293899BB243F002039381A36868
S1131E8013F0020FFBD1237843F002032370A368FD
S1131E9013F0030FFBD125B9E37913F0010FFBD045
S1131EA038BDE37913F0020FFBD038BD706E00002B
S1131EB0FD190000012901D90020704702689368C8
S1131EC013F0020FFBD1043102EB41029088C0F3FE
S1131ED0400070470068083220F81210836813F03D
S1131EE00C0FFBD17047000008B51A4A138C03F09D
S1131EF01F0303EB4301184800EB810002EB0312BC
S1131F0092F84E2012F0010F0AD11A0102F1824216
S1131F1002F5204292F84E2012F0020F0BD108BDB8
S1131F201A0102F1824202F52042012182F84E1088
S1131F304368984708BD1A0102F1824202F5204223
S1131F40022182F84E1003EB4303034A52F8233074
S1131F509847E4E700A000412003002070B4314A10
S1131F60138823F002031B041B0C1380538823F4EF
S1131F707C531B041B0C538013889BB243F0010356
S1131F801380138813F0010FFBD1264B4FF47062BA
S1131F901A805A7B02F0FE025A7300215961224AC8
S1131FA05A63224A9A63224B1F4C0E461D6808014D
S1131FB000F1824202F5204215641D7982F84550F1
S1131FC05D7982F84650DD8822182552D6600131A9
S1131FD008332029EAD11F23012016499AB213F4A9
S1131FE0004F0BD00133242BF8D10E4A13889BB237
S1131FF043F002031380002070BC70475C0902F0B8
S11320001F0200FA02F204F1200541F82520BFF373
S11320104F8FBFF36F8F04F1600541F8252041F81D
S11320202420DFE700A0004100E7002000E90020B1
S1132030886E000000E100E008B5014B984708BD38
S1132040E91E000008B5014B984708BDE91E0000D1
S113205008B5014B984708BDE91E000008B5014BBF
S1132060984708BDE91E000008B5014B984708BD14
S1132070E91E000010F0010F08D0114A114B1A623A
S1132080194643F6FD724B681342FCD110F0020F5F
S113209008D00D4A0B4B5A62194643F6FD724B6841
S11320A01342FCD110F0080F08D0084A054BDA623D
S11320B0194643F6FD724B681342FCD1704700BFCA
S11320C007010100001C0040060101000401010099
S11320D000B583B0144B186803685A6901921A6AF0
S11320E000925A6A019A12F0200F0BD0019A5A6199
S11320F00D4B5A6803EBC203DB7BDB0902D0436858
S113210003B19847009B13F0020F04D0064B1868E4
S1132110836803B19847044B1B681B68009A1A62D2
S113212003B05DF804FB00BFA004002030B40160DC
S113213010230B600368284A5A6003680122DA609E
S11321400368264A1A6102680023C2F8B83002689C
S113215040F20111C2F8BC10214901F120028A6049
S1132160CB608022CA7301F2FC520A614B61C02227
S1132170CA754B60C1F8D83B01F53E63194A01F5B5
S11321809F51002442F8043C42F8084B80338B42B0
S1132190F8D1154B93F8602342F0020283F86023D0
S11321A00021C3F8681304680D4A02F10805E561CB
S11321B0046803F53A73A36110600C4B4FF480126A
S11321C0C3F88820BFF34F8FBFF36F8FC3F8882104
S11321D09A60084630BC70470301100004070200EF
S11321E0A0040020841800209815002000E100E0DD
S11321F00268136843F00C0313600020704700006A
S11322000122014B5A7170470008004008B5036968
S11322101A8A12F0010F05D001221A82036853B101
S1132220984708BD1A8A92B22AB140F25E221A82F5
S1132230436803B1984708BD38B50C46054650B30A
S11322401648814214BF002001204B221449154B2B
S113225098472C61238823F0C0039B049B0C2380A4
S1132260114B1D60114B4FF00051C3F88010BFF3A8
S11322704F8FBFF36F8F4FF08042C3F88020BFF3BE
S11322804F8FBFF36F8FC3F88011C3F8802119609B
S11322901A60002038BD0020D7E700BF004000418D
S11322A0886F0000FD1900000419002000E100E01F
S11322B04FF4007070470369986880B2704710B497
S11322C00469608A10F0010FFBD043B10139104654
S11322D0134411F8014F00F8014B9842F9D15DF80D
S11322E0044B704708B5024B1868024B984708BD69
S11322F0041900200D22000008B5024B1868024B97
S1132300984708BD041900200D220000034BDA6928
S113231002F47C52DA6101221A74704700140040FE
S113232070470000474A136A23F00F0343F0040385
S11323301362114643F6FD724B681342FCD1414AC5
S1132340536813F0040FFBD13F4B00221A773F4A26
S11323509A621A4692F82C3013F0100FFAD1002228
S1132360394B83F820201A4692F82C3013F0040FCE
S1132370FAD10222344B1A771A4692F82C3013F011
S1132380020FFAD1304B5A6A5A621A4692F82C302C
S113239013F0080FFAD180222B4B83F820201A4621
S11323A092F82C3013F0040FFAD14322254BC3F8D2
S11323B08420274AA3F540635A631A46D36B13F06B
S11323C0060FFBD1204B4FF400629A63022283F87C
S11323D030201A46D36B13F0020FFBD11A4B93F83B
S11323E0203013F0010F26D0174A136903F4106349
S11323F0B3F5106FF9D1144B1A6C12F0010F03D11D
S11324001A6C12F0020FF7D00E4A5368002BFCD15D
S11324100C4A136A23F00F0343F0070313621146B7
S113242043F6FD724B681342FCD1064A536813F01D
S1132430040FFBD17047044A136913F4807FFBD067
S1132440D9E700BF001C0040001000400000010458
S11324504D0E010000B583B00D4B9B78DBB20193A8
S1132460019B13F0020F06D00A4B1B681BB1084AEC
S11324705068984709E0019B13F0010F05D0054B04
S11324805B6813B1024A5068984703B05DF804FBD7
S11324900000024100EB002070B489B006466C468F
S11324A00D4D0FCD0FC495E80F0084E80F00009B7D
S11324B0B3420DD0314601AB012053F8042B8A42BC
S11324C007D001300828F8D1002009B070BC70474B
S11324D00020C0B2F9E700BFA86F000010B58469FE
S11324E0237E13F0010F03D0A37D13F0010F12D14B
S11324F0237E13F0020F03D0A37D13F0020F0FD13C
S1132500237E13F0040F15D0638B03F0370363B1FC
S1132510FF23638310BD012323750368984710BD0F
S1132520022323758368984710BDA16A4368C9B222
S1132530984710BD237EDB0900D110BD802323768C
S1132540C3689847638B9BB26383F6E7144B984246
S113255014D0144B984214D0134B984214D0134BFC
S1132560984214D0B0F1864F14D0114B984214D035
S1132570104B984204BF104B996170470E4B196081
S1132580EDE70D4B5960EDE70B4B9960EDE70A4B16
S1132590D960EDE7084B19617047074B59617047E3
S11325A0003000400034004000200141004001415F
S11325B000040043000800430819002008B5034B39
S11325C0984780002E3000F0FE0008BD99240000DA
S11325D008B50268117E937D0B4013F0010F09D1F9
S11325E013F0040F09D113F0020F09D113F0800F77
S11325F00BD108BD8368984708BDC368984708BDD8
S1132600022313760369984708BD04235383802368
S1132610137643696FF012019847EAE710B5044650
S1132620414B984706285CD007285CD040F27722BB
S11326303E4900203E4B98470021E36913F0010F07
S113264022D14B005A183B4B03EBC2035A6A02F0E7
S11326501C02E36913F0030FFBD1236813F0020F8C
S11326600BD0236823F002032360E36913F0030F04
S1132670FBD1E36913F0020FFBD142F001022260A7
S1132680E36913F0030FFBD1E36913F0010FFBD1EE
S11326900A464B000B44274901EBC301486A2060FA
S11326A0E36913F0030FFBD153009918214B03EB9B
S11326B0C1039B6A6360E36913F01F0FFBD15300EE
S11326C099181C4B03EBC103DB6AA36010F4C04FE1
S11326D00BD153009918174B03EBC1031B8EA38135
S11326E011E00021A9E70121A7E7124B03EBC10385
S11326F0188EA18960F30C01A18193F83210A3898B
S113270061F34F33A3810B4B5100881803EBC000D6
S113271090F83300A0730A4403EBC20393F83430F7
S113272084F83030002010BD992400007870000037
S1132730FD190000A86F000038B50C460546C922F3
S11327400549003018BF0120044B98472C602046EF
S1132750034B984738BD00BF78700000FD19000096
S11327601D26000070B50D460646D72217490030D5
S113277018BF0120164B98472846164B9847044625
S113278008B1204670BDB56131462846124B9847C2
S11327902846124B9847011DC9B2012500F01F02BB
S11327A005FA02F243099B0003F1604303F5614318
S11327B0C3F88020BFF34F8FBFF36F8FC3F880211E
S11327C01A600130C0B28142E8D1DAE778700000C3
S11327D0FD1900001D2600004D250000BD25000048
S11327E00268136843F002031360D36913F0030F04
S11327F0FBD170478269136843F002031360D36905
S113280013F0030FFBD17047036899627047836923
S1132810996270470368986AC0B270470368187E6B
S113282000F0010070470368187EC0F34000704751
S11328300368187EC0F380007047836901229A758B
S11328407047836902229A757047000070B50C4680
S11328501646054640F237221549003018BF0120BC
S1132860144B984714F0FD0F0DD1AB692EB901221A
S11328701A75AB6902221A7570BD01229A75AB698B
S113288002229A7570BD012C02D0032C08D070BDB1
S1132890AB6916B904221A7570BD04229A7570BD0D
S11328A0AB6916B180229A75F1E780221A7570BD62
S11328B078700000FD19000008B5024B1868024B3F
S11328C0984708BD08190020D125000008B5024B1F
S11328D01868024B984708BD08190020D12500004C
S11328E008B5024B1868024B984708BD0819002028
S11328F0D125000008B5024B1868024B984708BD63
S113290008190020D125000008B5024B5868024B75
S1132910984708BD08190020D125000008B5024BCE
S11329205868024B984708BD08190020D1250000BB
S113293008B5024B5868024B984708BD0819002097
S1132940D125000008B5024B5868024B984708BDD2
S113295008190020D125000008B5024B9868024BE5
S1132960984708BD08190020D125000008B5024B7E
S11329709868024B984708BD08190020D12500002B
S113298008B5024B9868024B984708BD0819002007
S1132990D125000008B5024B9868024B984708BD42
S11329A008190020D125000008B5024BD868024B55
S11329B0984708BD08190020D125000008B5024B2E
S11329C0D868024B984708BD08190020D12500009B
S11329D008B5024BD868024B984708BD0819002077
S11329E0D125000008B5024BD868024B984708BDB2
S11329F008190020D125000008B5024B1869024BC4
S1132A00984708BD08190020D125000008B5024BDD
S1132A101869024B984708BD08190020D125000009
S1132A2008B5024B1869024B984708BD08190020E5
S1132A30D125000008B5024B1869024B984708BD20
S1132A4008190020D125000008B5024B5869024B33
S1132A50984708BD08190020D125000008B5024B8D
S1132A605869024B984708BD08190020D125000079
S1132A7008B5024B5869024B984708BD0819002055
S1132A80D125000008B5024B5869024B984708BD90
S1132A9008190020D125000008B5024B9869024BA3
S1132AA0984708BD08190020DD24000008B5024B32
S1132AB09869024B984708BD08190020DD240000DE
S1132AC008B5024B9869024B984708BD08190020C5
S1132AD0DD24000008B5024B9869024B984708BDF5
S1132AE008190020DD24000070B506460C4608468F
S1132AF0654B984700287ED0012874D0022874D0F2
S1132B00032874D0042874D0052808BF052573D081
S1132B10002E00F0A780002C40F0AD80002500209E
S1132B2040F6652259495A4B9847002D00F097808A
S1132B30E36913F0010F1DD12B6803F01C02E36954
S1132B4013F0030FFBD1236813F0020F0BD023689B
S1132B5023F002032360E36913F0030FFBD1E3695D
S1132B6013F0020FFBD142F001022260E36913F07B
S1132B70030FFBD1E36913F0010FFBD134602B6821
S1132B8003F01C03082B41D040F64A123F49201C95
S1132B9018BF01203E4B98472B6823F4817323F020
S1132BA001032360E36913F0030FFBD16B6823F483
S1132BB0383323F4107343F400336360E36913F090
S1132BC0170FFBD12B7B23736B7B84F830306B683E
S1132BD003F00703002B0CBF012302233371EB899D
S1132BE0F380002070BD012506E0022504E00325E2
S1132BF002E0042500E0002505EB0515254B1D44E6
S1132C00002E8CD00120002C8AD188E740F65E1279
S1132C101E49201C18BF01201D4B98472B6823F424
S1132C20817323F001032360E36913F0030FFBD1E5
S1132C306B6823F4083323F4107343F4003343F430
S1132C4010736360E36913F0170FFBD1AB68636221
S1132C506B7B84F83030E369002BFCD1B7E76FF06D
S1132C600C0070BD40F6652208490020084B9847C7
S1132C706FF00C0070BD40F6652204490120044B3E
S1132C8098476FF00C0070BD992400007870000024
S1132C90FD190000107000002DE9F84381460E462E
S1132CA00468D1F800804D680779A8B1201C18BFCA
S1132CB0012040F6C9322E492E4B9847E36913F0A0
S1132CC0070F34D1E06910F00300FBD1236813F03F
S1132CD0020F30D0024608E00020EAE7013213F088
S1132CE0800F12D1B36883421ED9237EDBB213F066
S1132CF0040F24D0A16A002DF0D02970012F91BFB8
S1132D000135090A69700235E8E74FF6FF736383FA
S1132D10802323766FF01200237E13F0030FFBD081
S1132D2003232376BDE8F8839342DED8F4E76FF0FB
S1132D300300BDE8F8836FF01300BDE8F883904208
S1132D40CDD813F0010FCAD0B9F80610B8F1000FAE
S1132D500BD098F80010012F91BF08F1010898F8E2
S1132D6001E041EA0E2108F102080130A162B6E750
S1132D7078700000FD190000294B1B6913F0010F46
S1132D801FD1274A136913F0030FFBD1244B1B688F
S1132D9013F0020F0DD0224A136823F002031360CC
S1132DA0136913F0030FFBD11D4A136913F0020FCB
S1132DB0FBD101221A4B1A601A46136913F0030F50
S1132DC0FBD1174A136913F0010FFBD10822144BEE
S1132DD01A601A46136913F0030FFBD1104B00223B
S1132DE05A71FF221A7103221A730E4ADA611A46C3
S1132DF0136913F0C00FFBD13622094B1A621A462D
S1132E00136913F0C00FFBD1054A136843F00203A2
S1132E101360136913F0030FFBD10020704700BF48
S1132E2000380040B8272500244B1B6913F0010F1C
S1132E301FD1224A136913F0030FFBD11F4B1B68E8
S1132E4013F0020F0DD01D4A136823F00203136020
S1132E50136913F0030FFBD1184A136913F0020F1F
S1132E60FBD10122154B1A601A46136913F0030FA4
S1132E70FBD1124A136913F0010FFBD108220F4B47
S1132E801A601A46136913F0030FFBD10B4B00228F
S1132E905A71FF221A7110225A611A46136913F0EB
S1132EA0100FFBD1054A136843F002031360136942
S1132EB013F0030FFBD10020704700BF00A00141B5
S1132EC00020704738B5837C03F00F03C27C02F006
S1132ED0070101290BD05A0102F18242102182F824
S1132EE007115B0103F1824383F8081138BD12F026
S1132EF0400F0CD0C27C6FF38612C2745A0102F1E7
S1132F008242802182F80411402182F80511C27C9A
S1132F106FF3C302C27409495A018C180025A572C3
S1132F20A57602F182436F2483F8074102F18242BD
S1132F3082F808418B6E807C984738BD24190020A4
S1132F4008B5202303FA01F1C9B2837C03F00F030F
S1132F505B0103F1824383F80811034B1B6F826802
S1132F600121807C984708BD2419002038B5847C51
S1132F70FF2C03D0C37C13F0400F00D138BDC27CBA
S1132F806FF38612C274034A156F82682046A847FD
S1132F90F4E700BF2419002030B583B0837C2524D6
S1132FA08DF804404A248DF80540FF2B1ED0C47CC4
S1132FB014F0400F1AD003F00F04C9B1630103F1F8
S1132FC08243802583F804510B4602A90B4413F86D
S1132FD0041C630103F1824383F80711630103F1C5
S1132FE0824383F808111146054B984703B030BD5E
S1132FF0630103F18243402583F80551E4E700BFF0
S11330006D2F000030B583B0837C03F00F030422DE
S11330108DF8042008228DF805205A010C4691B33E
S113302002F1824191F80051C5F3021502EB04113B
S1133030324A0A44917AC9B2022D2CD011F0020FFF
S113304045D0C57C917A6FF34101917202AA224462
S113305012F8041C5A0102F1824282F807115B0142
S113306003F1824383F8081105F00703012B43D1D0
S1133070C37C13F0400F3FD0D9098C423CD00022CE
S11330801F4B984738E0590101F1824191F80051F2
S113309005F00705CAE711F0010FCFD0917A6FF35D
S11330A00001917202AA224412F8041C5A0102F18E
S11330B0824282F807115B0103F1824383F808110D
S11330C00422211C18BF01210D4B984714E004EB86
S11330D043010A4A02EB01120021917202AA14442C
S11330E014F8041C5A0102F1824282F807115B01B0
S11330F003F1824383F8081103B030BD2419002082
S1133100992F00002DE9F0410C4D05F1740405F5EB
S113311094754FF003080A4FFF2641462046B847EE
S1133120A6740023E3741434AC42F6D16022194629
S11331300248044B9847BDE8F08100BF24190020E1
S11331406D2F0000DB5C00002DE9F0410546847C16
S113315004F00F048846002900F09F80584B03EBCD
S113316044135869C0F30D0E2B8A40F2FF32934288
S113317000F08D80013B98B2EF7C07F00707B8F1AF
S1133180000F05D0620102F18242022382F8073166
S1133190A9680EEB0103AB606E68B3423FD2F61A26
S11331A0B6B2EA7C12F0200F2DD02A8A964228BFAC
S11331B01646296832461944E868424B9847EA683B
S11331C03F4B03EB44131A613D4B03EB44135A6921
S11331D066F30D025A615A696FF39B325A61B8F172
S11331E0000F08D1012F0CBF4E224A22630103F1C4
S11331F0824383F80921640104F18244802384F822
S11332000531BDE8F081B6F5005F28BF4FF40056E4
S113321029680B442A4A02EB44121361D4E7EB7C7D
S113322013F0100F0FD0EB7C6FF30413EB74244BEB
S113323003EB44135A696FF30D025A615A696FF331
S11332409B325A61CBE7012F4FEA441404F18244C4
S11332500CBF4B234A2384F808312A8A00EA0E0360
S11332609A4205D000212846174B9847BDE8F081C3
S1133270EB7C6FF38613EB74114BDB6EA968A87CAF
S11332809847D0B9EB7C43F04003EB74EAE7EF7C5A
S113329007F0070740F2FF3074E7038A40F2FF3279
S11332A0934207D1EF7C07F007074FF0000E40F27E
S11332B0FF306DE74FF0000E5CE7BDE8F08100BF22
S11332C024190020C55C00006D2F00002DE9F84F83
S11332D00446857C05F00F058946002956D0744BB9
S11332E003EB45135A68C2F38D3A5F68C7F30D07C1
S11332F0BB46068A40F2FF339E4200F0BA80013E8C
S1133300B6B206EA0B0794F8138008F00708B9F17F
S1133310000F05D06B0103F18243012283F80721DA
S1133320E37C13F0200F0DD06268002A37D0A06828
S1133330121A92B22368BA4228BF3A46E168184486
S11333405C4B9847636853B3B9F1000F40D0228AAD
S1133350BA423DD9E37C6FF30413E374A3685B447E
S1133360A360B8F1010F4FEA451303F182430CBF88
S11333702D22252283F8082115B9E2684C4B1A60E6
S1133380002120464C4B9847BDE8F88F068A40F24E
S1133390FF339E427BD04FF0000BDA46AFE7E37C6D
S11333A013F0100F6CD0E37C03F0EF0343F0200321
S11333B0E374E0683E496A018B188850218A5A6890
S11333C061F39B325A605A686FF30D025A601DE034
S11333D0A2685244A2609342C3D99B1A9BB2E17C77
S11333E011F0200F26D0228A934228BF1346E068AA
S11333F06A012F4988502E4A02EB4512516863F343
S11334009B31516053686FF30D035360B9F1000FA2
S113341008D1B8F1010F25D025226B0103F18243B5
S113342083F809216D0105F18245402385F80431B3
S1133430BDE8F88F218A8B420AD9B3F5005F0ED814
S113344023EA060321680A44690119484250D2E775
S11334508B42F7D2E17C41F02001E174F2E74FF4B2
S11334600053EFE7124B03EB451300229A762D220B
S1133470D3E7C7F3090790F8138008F0070849E772
S1133480B9F1000F0BD1A3685344A36069E790F826
S1133490138008F007080027BB46BA4640E7238A92
S11334A0BB423FF657AFA3685344A36059E700BF3C
S11334B024190020C55C00006D2F00002DE9F8439D
S11334C04FF082431E8CB6B246B1914D0024A5F153
S11334D07407DFF85892DFF85882D3E0998B1B8B7E
S11334E09BB20B4013F0040F1DD113F4007F23D1C2
S11334F013F0800F47D113F0700F4FD113F0080F62
S11335006ED113F0010FE0D04FF0824340F201225C
S11335109A839A8270221A837E4B5B6E0021042068
S11335209847BDE8F88304224FF082439A83794B8D
S11335301B6E9847BDE8F8834FF0824340F20122A6
S11335409A839A8270221A83724B1B8903F00F03A9
S1133550032B0ED06F4B1B8D03F00F03032B08BFFF
S1133560012207D000216B4B5B6E03209847BDE816
S1133570F8830022674B03EB42131989C1F30A1144
S113358000221A81EFE780224FF082439A83614B35
S11335905B6E002105209847BDE8F8834FF0824315
S11335A070229A839A8240F201221A835A4B93F82A
S11335B0203013F0010F0DD0574A136903F4106340
S11335C0B3F5106FF9D1534B5B6E0021022098477D
S11335D0BDE8F883504A136913F4807FFBD0F2E707
S11335E04FF08243002483F8004108229A8370221A
S11335F09A8240F201221A83484B9847454B5B6EEE
S1133600214601209847BDE8F88311F0100F09D135
S113361011F0400F08D111F0200F2FD00021404BA2
S113362098472BE0C84729E001213D4B984725E006
S113363011F0400F11D111F0080F12D111F0020F47
S113364012D103F00703012B18D111F0040F0FD18D
S113365011F0100F12D0C84710E00121304B9847E9
S11336600CE00121C04709E001212E4B984705E0F9
S11336700021C04702E00021294B9847013414354A
S1133680092C42D02846AB7CFF2BF7D003F00F0364
S1133690012199403142F1D0590101F1824101F5F2
S11336A08071C9795B0103F1824393F809311940B0
S11336B0E4D004EB840207EB820292F8873003F033
S11336C04702012AA1D013F0800FB1D111F0200FCD
S11336D0D1D111F0040F0ED111F0010F0ED103F06E
S11336E00703012BCAD111F0080F0BD111F0100FF1
S11336F0C4D0C847C2E70021C047BFE701210A4B35
S11337009847BBE70121C047B8E7BDE8F88300BF8D
S113371098190020241900200010004005310000F1
S1133720412F000049310000CD320000C52E0000B9
S11337300530000008B54FF082439B7813F0010F69
S113374024D14FF08242937813F0030FFBD14FF052
S113375082431B7813F0020F0FD04FF0824213788C
S113376003F0FD031370937813F0030FFBD14FF0B4
S11337708242937813F0020FFBD101224FF082436F
S11337801A701A46937813F0030FFBD14FF082425C
S1133790937813F0010FFBD1214B224A1A665A6623
S11337A09A66DA661A67204B9847204B1968C1F36A
S11337B04413C1F3822211F01F012BD01F2908BF2B
S11337C009214BB31F2B08BF19233AB3072A08BF9B
S11337D0062203F01F0343EA8113120302F4E042BA
S11337E013434FF082421385D37843F00303D3701D
S11337F0D37843F00C03D37004231370937813F03D
S1133800030FFBD14FF08243054A5A6201221A8109
S1133810002008BD0921D4E71923D6E70622D8E7FA
S113382024190020C12E000005310000840080000E
S113383070B443B2DC0F10F00F0008D0002BB4BFFB
S1133840831C0346022803D96FF0110018E00023FB
S1133850012917D000293AD003EB8303454A02EB30
S1133860830393F8863003F00F035B0103F1824373
S113387093F806211023A3401A4214BF012000200C
S113388070BC70471025A540EDB23A499E00F2186D
S113389001EB820292F8862002F00F02500100F13F
S11338A0824080F80551202000FA04F4E4B2520169
S11338B002F1824282F80941334401EB830393F815
S11338C0872042F0080283F887200020D8E703EB22
S11338D08302284901EB820292F8862002F00F024B
S11338E0510101F1824191F806511020A040054296
S11338F03CD0C0B281F804012020A040C5B281F8B8
S1133900085191F80721024207D081F8075101229A
S113391002FA04F4E4B281F8044103EB830215488B
S113392000EB820292F8872002F00702012A0CD0F1
S113393003EB83030F4A02EB830393F887206FF3AF
S1133940C30283F8872000209AE791F8062112F039
S1133950300F0DD103EB830200EB820393F8872031
S11339606FF3C30283F88720002089E7002087E7EC
S1133970002085E72419002030B400F00F0463010F
S1133980144AD018D5584068C0F30D00022C17D83B
S1133990C9B103F1824393F80021D2B2112A15D19F
S11339A093F8072112F0100F02D1002030BC7047A9
S11339B02C686A680C604A60102283F80721F5E7D6
S11339C06FF01100F2E76FF01100EFE76FF01200F3
S11339D0ECE700BF241900202DE9F04F83B0037AEF
S11339E05EB213F00F0300F0C280002EB4BF9A1C25
S11339F01A461446694901F16007551C05EB850513
S1133A0007EB850702EB820201EB8202B2F8842005
S1133A1040F2FF318A4225D0551EADB241680D40B7
S1133A20022B00F292800368B3F1005F1CD303EB16
S1133A30010CDFF880E1F44516D813F0030F13D11D
S1133A40002E2ADB8A4200F29C804DB304EB8403EF
S1133A50524A02EB8303D3F88030002B7BD04FF023
S1133A6000080CE01546D9E704EB84034B4A02EB4B
S1133A708303D3F88030002B6AD04FF0010804EBA5
S1133A808403464A02EB830393F8873013F0080F4C
S1133A9009D0022003B0BDE8F08F4FF00008EEE734
S1133AA04FF00008EBE7824601A83D4B984704EB32
S1133AB084033A4A02EB830393F8873013F0400FF0
S1133AC03CD104EB8409354B03EB890999F8873021
S1133AD043F0400389F8873001A8324B9847DAF85D
S1133AE00030C9F87430DAF80430C9F878300023AB
S1133AF0C9F87C30F20F99F8873062F3C71368F382
S1133B00451389F887309AF80930E3B1B5FA85F599
S1133B106D0904EB8404214B03EB840494F887308F
S1133B2065F3041384F88730002E4FF00001384603
S1133B30B4BF1D4B1D4B98470020ABE701A8194BA0
S1133B4098470120A6E70025E3E76FF01100A1E7FD
S1133B506FF012009EE76FF011009BE76FF0120008
S1133B6098E74168C1F30905114F00245BE70B4A4C
S1133B70B2F8842040F2FF318A42F2D00C4F002484
S1133B804AE704EB8403054A02EB8303D3F880304D
S1133B90002BE3D04FF0010871E700BF2419002087
S1133BA0810F00008F0F000049310000CD3200006A
S1133BB098190020FF1F0420094B002908BF19464B
S1133BC0034630B1012807D0022804BF054B19670A
S1133BD07047044B99667047024BD966704700BF23
S1133BE0C12E00002419002008B5014B984708BDD8
S1133BF0BD34000008B5014B984708BDBD34000032
S1133C0008B5014B984708BDBD34000008B5014B09
S1133C10984708BDBD34000010B500234FF0FF32B3
S1133C20194604480068044CA047003018BF01201E
S1133C3010BD00BF0C1B00203D4C000010B500233C
S1133C401A46194602480068024CA04710BD00BF3E
S1133C500C1B00204548000080B582B000210F48AD
S1133C600F4B98470F48104B98470C4E0F4D104C74
S1133C70022301AA00213046A847A0470028F7D014
S1133C800C48094FB8479DF804100B48B8470B4B34
S1133C9098474FF4FA700A4B9847E9E724E6002066
S1133CA0B50E000094700000ED5C0000E10E000011
S1133CB0193C0000AC700000FC7000003D3C0000AA
S1133CC09553000000B583B00021ADF806101448E8
S1133CD0144B98471448154B9847114E144D154CE6
S1133CE001230DF1060200213046A847BDF8063035
S1133CF001335A42C3F30903C2F3090258BF5342C2
S1133D00ADF80630A0470028EAD00B48074B984787
S1133D100A4B98474FF4FA70094B9847E0E700BF05
S1133D2028E60020DD0F000094700000ED5C000028
S1133D3011100000193C0000C07000003D3C000060
S1133D409553000010B584B0164B98470120164BCC
S1133D509847164B186078B1002303930293144AD2
S1133D600192012200924FF4807212491248134CBE
S1133D70A047012801D0FEE7FEE700230393029346
S1133D800F4A0192022200924FF480720D490E48AC
S1133D900A4CA047012800D0FEE70C4B98470020AE
S1133DA004B010BDD1020000154A00000C1B002015
S1133DB05829002040710000C53C0000D94E000085
S1133DC05C29002044710000593C0000DD500000D3
S1133DD0084A936803F00F01114481F81802581C33
S1133DE090605368C01A0F284FF0FF3098BF00202E
S1133DF0704700BF6029002010B50446294B1B788A
S1133E001BB9284B5B78012B06D0AA2C0BD0264B70
S1133E101B7B012B22D010BD234B1B78012BF4D12B
S1133E20224B9847F1E7204A0023C2F814320121BB
S1133E30117353739373C3F308021B490A44147533
S1133E4001330B61AB2CE6D1164B1B78012B11D03F
S1133E50154B00221A7301229A73DCE7124A136984
S1133E60D2F814229A1A22F4FF7222F00102002AD4
S1133E70E8D1E0E70B4B5B78012BE9D10A4B5B7B84
S1133E80012B07D0084B00221A61C3F81422012227
S1133E905A7310BD044B00221A735A7301229A7389
S1133EA010BD00BF0000002060290020D13D0000AB
S1133EB040B908B50B4611461846044B984740EAEA
S1133EC0E07008BD4FF0FF30704700BF213F000095
S1133ED00138022808D808B50B4611461846044B89
S1133EE0984740EAE07008BD4FF0FF30704700BFCC
S1133EF0453F000070B50646064D2B6800219868C2
S1133F00054CA0472B6800215868A047034B1E604E
S1133F1070BD00BF0C0000201D5D00008C2B002034
S1133F2008B5064B1B6833B10A46014692B21846DF
S1133F30034B984708BD002008BD00BF8C2B002010
S1133F40F111000008B5064B1B6833B10A4601465F
S1133F5092B21846034B984708BD002008BD00BF25
S1133F608C2B0020C111000010B5044C2046044BDA
S1133F7098472046034B984710BD00BFCCE600206D
S1133F8015170000F53E000038B505460C462B22F7
S1133F900849012C8CBF00200120074B984721467B
S1133FA00120064B98472860002814BF00206FF0BA
S1133FB0130038BD48710000FD190000F1470000EE
S1133FC010B50D4B5B68C3F308034BB100210068C7
S1133FD00A4B9847002814BF00206FF0020010BD60
S1133FE000231A4619460068054CA047002814BF50
S1133FF000206FF0020010BD00ED00E0654B0000F2
S11340004548000010B500230A4619460068044CD0
S1134010A047002814BF00206FF0070010BD00BFA8
S11340203D4C0000036843B110B504461846044BE8
S1134030984700232360002010BD0020704700BF74
S1134040014E000000F1080343604FF0FF3282602C
S1134050C36003610023036070470023036170475A
S113406043684B609A688A609A68516099600861F5
S1134070036801330360704730B40D68B5F1FF3F46
S113408002D000F1080202E0026904E01A46536813
S11340901C68A542FAD253684B6099608A605160EB
S11340A0086103680133036030BC704703694268E8
S11340B0816891608268416851605A68904204BF87
S11340C082685A60002202611868013818607047DB
S11340D00B4B1B68B3F1FF3F08D04FF0800383F311
S11340E01188BFF36F8FBFF34F8FFEE74FF080034C
S11340F083F31188BFF36F8FBFF34F8FFEE700BFC9
S11341000400002006480068006880F3088862B64E
S113411061B6BFF34F8FBFF36F8F00DF00BF0000A6
S113412008ED00E0DFF80C00016841F47001016063
S11341307047000088ED00E04FF0807340F8043CC5
S113414040F8081C054B40F80C3C40F8202C6FF05C
S1134150020340F8243C4438704700BFD1400000BB
S1134160064B19680868B0E8F04F80F30988BFF37C
S11341706F8F4FF0000080F311887047DCE300205C
S11341804FF0800383F31188BFF36F8FBFF34F8F1A
S11341900A4A136801331360012B0DD1084B1B68C5
S11341A013F0FF0F08D04FF0800383F31188BFF39F
S11341B06F8FBFF34F8FFEE7704700BF04000020EE
S11341C004ED00E0094B1B6843B94FF0800383F30F
S11341D01188BFF36F8FBFF34F8FFEE7013B034A94
S11341E013600BB983F31188704700BF04000020EB
S11341F0EFF30980BFF36F8F144B1A681EF0100F92
S113420008BF20ED108A20E9F04F10604DF8043DFE
S11342104FF0800080F31188BFF34F8FBFF36F8F8F
S113422001F034F94FF0000080F3118808BC1968DC
S11342300868B0E8F04F1EF0100F08BFB0EC108A09
S113424080F30988BFF36F8F704700BFDCE3002061
S113425008B5EFF311834FF0800282F31188BFF3A6
S11342606F8FBFF34F8F054B984718B14FF08052B3
S1134270034B1A60002383F3118808BD79510000B1
S113428004ED00E0034A044B1A600722043B1A6061
S1134290704700BFBDD4010014E000E0344B1A683D
S11342A0344B9A421FD0324B1A68334B9A4223D074
S11342B000B583B0314B1A78D2B20192FF221A7042
S11342C01B78DBB28DF803309DF803302C4A03F0E1
S11342D080031370072353609DF8033013F0800F9D
S11342E022D0062212E04FF0800383F31188BFF33B
S11342F06F8FBFF34F8FFEE74FF0800383F3118876
S1134300BFF36F8FBFF34F8FFEE70A469DF803306C
S11343105B00DBB28DF803309DF80330511E13F0BF
S1134320800FF2D1164B5A60154A53681B0203F4EE
S1134330E0635360019BDBB2104A1370114B1A689F
S113434042F460021A601A6842F060421A600E4B2E
S1134350984700220D4B1A600D4B98470D4A13687D
S113436043F0404313600C4B98470C4B984700BFF5
S113437000ED00E071C20F4170C20F4100E400E0A3
S1134380902B002020ED00E0854200000400002076
S11343902541000034EF00E005410000D140000059
S11343A0EFF305830F2B0FD9104A9B5CDBB2104A45
S11343B012789A4208D94FF0800383F31188BFF32F
S11343C06F8FBFF34F8FFEE70A4B1B6803F4E06364
S11343D0074A5268934208D94FF0800383F3118847
S11343E0BFF36F8FBFF34F8FFEE77047F0E300E03A
S11343F0902B00200CED00E070B504462D4B98473F
S11344002D4B9B6883B1002C4DD0083414F0070F5A
S11344101CBF24F007040834621E4BF2F6739A4260
S113442043D825490B6817E0234901F1140323F00D
S113443007030B6000254D60204A4BF2F870C2F868
S1134440600EC2F85C5E586002F65C621A6001237A
S11344508B60D8E7194613465A68944202D91A6801
S1134460002AF7D1164A934221D00D6808351A68FC
S11344700A605A68121B102A0CD91E1972605C60FB
S113448074680D4900E011460A6850688442FAD8FD
S113449032600E600B490A685B68D21A0A600A4BE4
S11344A09847284670BD0025F9E70025F7E7002561
S11344B0F5E700BF59510000982B002048D5002093
S11344C0A4E300200800002085520000D0B170B59C
S11344D00546A0F108060C4B984755F8044C0B4AC6
S11344E000E01A46136859688C42FAD845F8083C2B
S11344F01660074A55F8043C11680B441360054BD9
S1134500984770BD704700BF59510000982B002098
S1134510080000208552000038B504461546026C98
S11345205AB90368002B2ED140681B4B98470023CF
S11345306360A36B0133A36338BD6DB98068174B07
S11345409847A368226C1344A360626893421CD307
S11345502368A3600020ECE7C068104B9847236CE5
S11345605B42E2681A44E26021688A4202D26268CD
S11345701344E360022D0AD1A36B53B1A36B013B37
S1134580A3630020D5E70020D3E70020D1E7002073
S1134590CFE70020CDE700BFE9570000C55C00006D
S11345A030B583B00190446D64B1A26BE36B9A4261
S11345B011D34FF0800383F31188BFF36F8FBFF3E0
S11345C04F8FFEE74FF0800383F31188BFF36F8FA3
S11345D0BFF34F8FFEE7A26B934203D80025284612
S11345E003B030BD0A4601A920460B4B9847054647
S11345F0A36CB3F1FF3F0AD1636A002BEFD004F13F
S11346002400064B9847002818BF0125E7E7A36C50
S11346100133A364E3E700BF19450000F15500002E
S1134620026C72B110B50346C4681444C460406897
S1134630844224BF1868D8600846D968014B98475B
S113464010BD7047C55C0000F8B50446224B98477E
S1134650A36C002B1BDD214D214F224E0BE0636A1E
S1134660ABB104F12400B04778B9A36C013BA36457
S1134670A36C002B0BDD636D002BF0D000212046D2
S1134680A8470128F1D1B847EFE7B847EDE74FF065
S1134690FF33A364144B98470F4B9847636C002B6C
S11346A014DD236993B104F110060E4D0C4F07E09D
S11346B0636C013B6364636C002B07DD23692BB1DE
S11346C03046A8470028F3D0B847F1E74FF0FF334E
S11346D06364054B9847F8BD81410000A145000083
S11346E035570000F1550000C541000038B508B346
S11346F004460D461C4B98472268216CE36B03FB70
S113470001F3D01860600020A063A2605B1A134418
S1134710E3604FF0FF336364A364EDB923692BB105
S113472004F11000114B984701280CD0104B984706
S1134730012038BD4FF0800383F31188BFF36F8FDE
S1134740BFF34F8FFEE74FF080520A4B1A60BFF35E
S11347504F8FBFF36F8FE9E704F11000064DA847B0
S113476004F12400A847E1E781410000F15500006D
S1134770C541000004ED00E045400000F8B540B933
S11347804FF0800383F31188BFF36F8FBFF34F8F14
S1134790FEE7064617460D4679B101FB00F0593095
S11347A0114B98470446D8B94FF0800383F311881E
S11347B0BFF36F8FBFF34F8FFEE758200A4B984724
S11347C004460028F0D02060E663256401212046D9
S11347D0064B984784F85070002363652046F8BD63
S11347E000F158030360EFE7F9430000ED460000D1
S11347F040B94FF0800383F31188BFF36F8FBFF389
S11348004F8FFEE7884208D24FF0800383F311886C
S1134810BFF36F8FBFF34F8FFEE710B50C46022234
S11348200021074B984708B1846310BD4FF0800303
S113483083F31188BFF36F8FBFF34F8FFEE700BF81
S11348407D4700002DE9F04F85B0019298B10446F0
S1134850D1B1022B24D01D468846614B984758BBE2
S1134860019B83B34FF0800383F31188BFF36F8FF1
S1134870BFF34F8FFEE74FF0800383F31188BFF33C
S11348806F8FBFF34F8FFEE7026C002AE1D04FF029
S1134890800383F31188BFF36F8FBFF34F8FFEE75D
S11348A0E26B012AD7D04FF0800383F31188BFF362
S11348B06F8FBFF34F8FFEE700274A4EDFF850A1FA
S11348C0DFF82C9142E00027F7E72A4641462046CC
S11348D0454B9847636D9BB129462046434B984707
S11348E0012807D14FF08052414B1A60BFF34F8F1C
S11348F0BFF36F8F3F4B9847012005B0BDE8F08FA1
S1134900636A73B104F124003B4B98470128F1D149
S11349104FF08052364B1A60BFF34F8FBFF36F8F47
S1134920E8E70028E6D04FF08052314B1A60BFF31D
S11349304F8FBFF36F8FDDE72E4B98470020DCE7E6
S113494020462E4B98472E4B98470127B047A26B21
S1134950E36B9A42B9D3022DB7D0019B002BEBD065
S11349600FB902A8D047234B9847264B9847B04726
S1134970636CB3F1FF3F04BF00236364A36CB3F122
S1134980FF3F04BF0023A3641A4B984701A902A860
S11349901D4B9847E0B9B047D4F838B0E76B154BD6
S11349A09847BB45CCD1019904F11000174B9847A7
S11349B02046124B9847124B98470028C5D14FF018
S11349C08053C9F80030BFF34F8FBFF36F8FBCE73C
S11349D020460A4B98470A4B984700208DE700BFB2
S11349E0455700008141000019450000A145000021
S11349F004ED00E0C5410000F15500004946000007
S1134A008552000059510000A95600003D55000090
S1134A108156000070B506465820114B984704464D
S1134A20D8B10025456005608560C56085630123B4
S1134A30C36305644FF0FF334364836480F85060BC
S1134A4045651030074EB04704F12400B0472B46AB
S1134A502A4629462046044DA847204670BD00BF7B
S1134A60F94300004540000045480000002833D0C9
S1134A702DE9F0410446002937D0022B41D01E46CF
S1134A8015468846334B9847EFF311874FF0800360
S1134A9083F31188BFF36F8FBFF34F8FA26BE36B68
S1134AA09A4201D3022E48D13246414620462A4B2F
S1134AB09847A36CB3F1FF3F3AD1636D6BB33146B2
S1134AC02046264B9847012839D1002D39D028603B
S1134AD087F31188BDE8F0814FF0800383F31188D8
S1134AE0BFF36F8FBFF34F8FFEE7006C0028C4D075
S1134AF04FF0800383F31188BFF36F8FBFF34F8FA1
S1134B00FEE7E06B0128BAD04FF0800383F31188ED
S1134B10BFF36F8FBFF34F8FFEE7636A9BB104F15E
S1134B2024000F4B984780B18DB101202860CFE756
S1134B30A36C0133A3640120CAE70020C8E7012065
S1134B40C6E70120C4E70120C2E70120C0E7012035
S1134B50BEE700BFA143000019450000A1450000C5
S1134B60F155000060B170B50446036C8BB14FF091
S1134B70800383F31188BFF36F8FBFF34F8FFEE77A
S1134B804FF0800383F31188BFF36F8FBFF34F8F10
S1134B90FEE7036823B30D46254B9847EFF31186D0
S1134BA04FF0800383F31188BFF36F8FBFF34F8FF0
S1134BB0A26BE36B9A422FD2A36B0133A363A36C62
S1134BC0B3F1FF3F23D1636DB3B100212046194BEC
S1134BD09847012822D11DB3286086F3118870BD3F
S1134BE04368002BD7D04FF0800383F31188BFF3C1
S1134BF06F8FBFF34F8FFEE7636A9BB104F124000C
S1134C000D4B984780B18DB101202860E5E7A36C76
S1134C100133A3640120E0E70020DEE70120DCE7A4
S1134C200120DAE70120D8E70120D6E70120D4E704
S1134C30A1430000A1450000F15500002DE9F04713
S1134C4084B0019288B10446C1B198460F465E4BC8
S1134C509847F8B9019B23B34FF0800383F311887D
S1134C60BFF36F8FBFF34F8FFEE74FF0800383F3E3
S1134C701188BFF36F8FBFF34F8FFEE7026C002ADA
S1134C80E3D04FF0800383F31188BFF36F8FBFF33A
S1134C904F8FFEE700264D4DDFF860A1DFF83C9111
S1134CA04BE00026F7E7E56839462046484B98472D
S1134CB0B8F1000F1DD1A36B013BA363236813B9A3
S1134CC0444B9847606023696BB104F11000424B78
S1134CD09847012807D14FF08052404B1A60BFF328
S1134CE04F8FBFF36F8F3E4B9847012004B0BDE850
S1134CF0F087E560636A002BF5D004F12400364B9D
S1134D0098470028EFD04FF08052344B1A60BFF31D
S1134D104F8FBFF36F8FE6E7314B98470020E5E7ED
S1134D20A84760682F4B98472D4B984730E02046A2
S1134D302D4B98472D4B98470126A847A36B002B72
S1134D40B1D1019B002BE7D00EB902A8D047244B68
S1134D509847274B9847A847636CB3F1FF3F04BFBC
S1134D6000236364A36CB3F1FF3F04BF0023A36477
S1134D701B4B984701A902A81E4B9847E8B9A847BE
S1134D80A66B174B9847002ED1D12368002BC7D0B0
S1134D90019904F12400184B98472046124B984778
S1134DA0124B98470028C7D14FF08053C9F8003000
S1134DB0BFF34F8FBFF36F8FBEE720460A4B984770
S1134DC00A4B9847002091E74557000081410000B5
S1134DD02146000081580000F155000004ED00E078
S1134DE0C541000065570000494600008552000097
S1134DF059510000A95600003D550000815600009D
S1134E0008B540B94FF0800383F31188BFF36F8F67
S1134E10BFF34F8FFEE7014B984708BDCD44000018
S1134E2070B504460D4616460E4B9847636CB3F1B5
S1134E30FF3F04BF00236364A36CB3F1FF3F04BFCF
S1134E400023A364084B9847A36B1BB12046074B70
S1134E50984770BD3246294604F12400044B984714
S1134E60F4E700BF81410000C5410000494600004D
S1134E7099550000074B9B6A1B6833B1054B9A6A2E
S1134E80D268D2685268DA6270474FF0FF32014B41
S1134E90DA627047ACE3002038B50D4B1A6B5060F2
S1134EA05B6B98420CD30446094DA86A296B043104
S1134EB0084B9847EB6A9C423CBF2B46DC6238BDEA
S1134EC0034B986B196B0431024B984738BD00BFF4
S1134ED0ACE30020794000002DE9F04F83B00C9D35
S1134EE0DDF834A00E9C50B1052D11D94FF080038C
S1134EF083F31188BFF36F8FBFF34F8FFEE74FF03B
S1134F00800383F31188BFF36F8FBFF34F8FFEE7E6
S1134F100190984616460F46A1463CB99000644B52
S1134F209847814610B94FF0FF3099E05420604B08
S1134F3098470446002800F09680C0F83090B200EC
S1134F40A52148465B4B984706F18046013E236BFA
S1134F5003EB860626F007063B7884F834303B786A
S1134F60002B40F08480002784F83B70E562656480
S1134F70A76404F104094846DFF85CB1D84704F19A
S1134F801800D8472461C5F10603A3616462E7648D
S1134F9084F85070424601993046474B9847206048
S1134FA0BAF1000F01D0CAF80040444B9847444B73
S1134FB0DA6B0132DA631B6B002B68D1404B1C6344
S1134FC0DB6B012B20D13E4E06F14007B836DFF8EB
S1134FD0F4803846C0471437B742FAD1384E06F148
S1134FE0B80A5046374FB84706F1CC084046B84790
S1134FF006F11400B84706F1E000B8473046B84758
S1135000C6F828A0C6F838802D4AD2F8F830013303
S1135010C2F8F830E363E36AD2F8FC20934284BF19
S1135020274AC2F8FC30264C04F1400003EB83030A
S1135030494600EB8300244B9847244B9847D4F807
S1135040F430002B30D0236BDB6A9D422ED94FF015
S113505080521F4B1A60BFF34F8FBFF36F8F012035
S113506003B0BDE8F08F48461A4B98475BE73B46D0
S113507004F13502073702E0BB423FF474AF5978BC
S113508002F8011B13F8011F0029F5D16BE70C4B43
S1135090D3F8F430002BB7D1094B1B6BDB6A9D426C
S11350A024BF074B1C63AFE70120D9E70120D7E7F2
S11350B0F9430000DB5C000039410000814100003D
S11350C0ACE300204540000061400000C541000001
S11350D004ED00E0CD4400005B40000010B584B056
S11350E0002303930293019300934022144915482B
S11350F0154CA047012809D0F8B94FF0800383F379
S11351001188BFF36F8FBFF34F8FFEE70F4B9847A4
S11351100128F1D14FF0800383F31188BFF36F8F1F
S1135120BFF34F8F0A4B4FF0FF32DA620122C3F80C
S1135130F42000225A63074B984704B010BD00BF07
S113514080710000FD530000D94E00004959000051
S1135150ACE300209D420000034AD2F8043101333D
S1135160C2F80431704700BFACE30020014B586B18
S1135170704700BFACE300202DE9F0473D4BD3F866
S11351800431002B66D13B4B5A6B01325A635F6B7F
S1135190BFB99B6A1B6843B14FF0800383F3118846
S11351A0BFF36F8FBFF34F8FFEE7324B9A6A996B51
S11351B099629A63D3F808210132C3F808212E4B6F
S11351C098472C4BDB6A9F420CD20024294B1A6B64
S11351D0D26A02EB820203EB82031B6C022B28BF10
S11351E001243EE00024234DDFF8948005F1400AB9
S11351F01EE04FF0FF321F4BDA62E7E71D4AD3622D
S1135200E4E706F11800C047F06AD5F8FC3098428C
S113521088BFC5F8FC0000EB800049460AEB80001B
S1135220164B98472B6BF26ADB6A9A4228BF01241B
S1135230AB6A1B68002BDCD0AB6ADB68DE68736882
S11352409F42DBD306F104094846C047B36A002BEA
S1135250D7D1D9E7074AD2F80C310133C2F80C315F
S11352600024044BD3F81031002B0CBF204601203E
S1135270BDE8F087ACE30020754E000061400000FB
S1135280AD4000002DE9F8433B4BD3F8043143B95A
S11352904FF0800383F31188BFF36F8FBFF34F8FF9
S11352A0FEE7364B9847344BD3F80421013AC3F850
S11352B00421D3F80431002B5AD12F4BDB6B002B84
S11352C032D100242E4B98472046BDE8F883236A48
S11352D0DD6805F11800B0472F1D3846B047E86A6D
S11352E0D4F8FC30984288BFC4F8FC0000EB80007E
S11352F0394609EB8000C047236BEA6ADB6A9A42AD
S11353000ED26369002BE2D11B4BD3F80C3103B3EB
S1135310194BD3F80C31E3B11A4E174C012512E0A6
S11353200123C4F81031ECE7134C174E04F1400983
S1135330DFF85C80E5E7D4F80C31013BC4F80C31AC
S1135340D4F80C312BB1B0470028F4D0C4F8105174
S1135350F1E7094BD3F81031012B0BD14FF08052F8
S11353600A4B1A60BFF34F8FBFF36F8F0124A9E775
S11353700024A7E70024A5E7ACE300208141000056
S1135380C541000079510000AD40000004ED00E08B
S11353906140000010B5E0B10446124BD3F804316B
S11353A043B14FF0800383F31188BFF36F8FBFF3D2
S11353B04F8FFEE70C4B98470A4B5A6B1444186BFB
S11353C004300A4B98472046094B9847094B9847A5
S11353D038B94FF08052084B1A60BFF34F8FBFF3B8
S11353E06F8F10BDACE3002059510000AD400000A8
S11353F0994E00008552000004ED00E080B51B4C7E
S11354001B4F1C4EDFF878902CE0236C012B21D825
S1135410D4F80031002BF8D0B847D4F8E050B047A6
S1135420002DF5D0C047D4F8EC30DD68281D124BB0
S11354309847E36B013BE363D4F80031013BC4F8C4
S113544000310E4B9847286BDFF838A0D047284628
S1135450D047DDE74FF08053C9F80030BFF34F8FDA
S1135460BFF36F8FDFF82080D2E700BFACE30020EA
S11354705951000085520000AD400000C5410000B4
S113548004ED00E0CD440000814100002A4BD3F834
S1135490043153BB284B0022C3F81021D3F8FC205D
S11354A002EB820203EB82031B6C1BBB224BD3F87F
S11354B0FC308BB1204AD2F8FC30013BC2F8FC30FE
S11354C0D2F8FC3003EB830302EB83031B6C8BB930
S11354D0D2F8FC30002BEED14FF0800383F3118817
S11354E0BFF36F8FBFF34F8FFEE70122124BC3F858
S11354F01021704710B4104AD2F8FC309900C81833
S113550002EB8000446C64684464194402464832E7
S113551094420AD0084A03EB830302EB83035B6CD7
S1135520DB6813635DF8044B70476068024A02EB62
S113553081025064EEE700BFACE3002038B590B1BF
S11355400C46104D296B18310F4B9847286B0430CB
S11355500E4B9847B4F1FF3F0ED00A4B586B2044D2
S11355600B4B984738BD4FF0800383F31188BFF38A
S11355706F8FBFF34F8FFEE72846296B0431054B2D
S1135580984738BDACE3002079400000AD400000EE
S1135590994E00006140000098B170B515460C4664
S11355A00F4E316B18310F4B9847306B04300E4B54
S11355B09847012D0ED00A4B586B20440B4B98474B
S11355C070BD4FF0800383F31188BFF36F8FBFF377
S11355D04F8FFEE73046316B0431024B984770BD64
S11355E0ACE3002061400000AD400000994E000093
S11355F038B5C368DC68002C29D004F118052846A6
S11356001A4B98471A4BD3F804314BBB251D284637
S1135610164B9847E06A164BD3F8FC30984284BF87
S1135620134BC3F8FC0000EB80002946114B03EB3D
S11356308000114B98470E4B1B6BE26ADB6A9A425F
S113564083BF01200A4BC3F81001002038BD4FF07E
S1135650800383F31188BFF36F8FBFF34F8FFEE78F
S113566029460648044B9847E5E700BFAD400000D3
S1135670ACE30020ECE3002061400000C0E3002024
S113568030B1084AD2F808110160526B4260704789
S11356904FF0800383F31188BFF36F8FBFF34F8FF5
S11356A0FEE700BFACE3002038B5C8B1044601B33F
S11356B00D461C4B98471C4B5A6B2B68B3F1FF3FAC
S11356C02BD01949D1F808112068884202D06168AA
S11356D08A4224D26168501A834213D8012418E004
S11356E04FF0800383F31188BFF36F8FBFF34F8FA5
S11356F0FEE74FF0800383F31188BFF36F8FBFF38E
S11357004F8FFEE79B1A0B442B602046074B9847AC
S11357100024074B9847204638BD0024F9E70124AC
S1135720F7E700BF81410000ACE300208156000090
S1135730C54100000122024BC3F81021704700BF8D
S1135740ACE30020064BD3F8F4303BB1044BD3F860
S11357500431002B0CBF0220002070470120704749
S1135760ACE30020002835D038B50546C26A1A4992
S1135770096BC96A8A4214D28169002905DB16497A
S1135780096BC96AC1F10601816102EB8202134906
S113579001EB82026969914204D00F4A126BD26A0A
S11357A0EA6238BD2C1D20460D4B98470A4B1A6BF4
S11357B0D06AE862D3F8FC30984284BF064BC3F841
S11357C0FC0000EB80002146044B03EB8000054BFA
S11357D0984738BD704700BFACE30020ECE30020DD
S11357E0AD4000006140000000283BD038B50446BD
S11357F01F4A126B904208D04FF0800383F3118844
S1135800BFF36F8FBFF34F8FFEE7826C42B94FF047
S1135810800383F31188BFF36F8FBFF34F8FFEE7CD
S1135820013A8264C06A616C88421DD0F2B9251DB8
S11358302846104B9847606CE062C0F10603A361F0
S11358400B4BD3F8FC30984284BF094BC3F8FC00DF
S113585000EB80002946084B03EB8000074B984778
S1135860012038BD00207047002038BD002038BD1D
S1135870ACE30020AD400000ECE3002061400000F8
S1135880054B1B6B23B1044B1A6B936C013393646C
S1135890014B186B704700BFACE3002008B54160B2
S11358A0006191420CD8D21A83699A4201D3012033
S11358B008BD011D094B1868094B9847002008BD15
S11358C09A4201D2994206D2011D044B5868044BF6
S11358D09847002008BD012008BD00BFC0E4002097
S11358E079400000F8B5134B9847134B9B6813B1EC
S11358F0124B9847F8BD104C04F10C063046104F7B
S1135900B84704F120052846B847666025600022A0
S11359100C2102200B4B984710B123469860E7E70F
S11359204FF0800383F31188BFF36F8FBFF34F8F62
S1135930FEE700BF81410000C0E40020C541000033
S1135940454000007D47000010B584B00D4B9847DA
S11359500D4B9B686BB100230393029301930222C6
S11359600092402209490A480A4CA04708B104B0F1
S113597010BD4FF0800383F31188BFF36F8FBFF323
S11359804F8FFEE7E5580000C0E400209871000046
S1135990B15A0000D94E0000D8B130B585B01546D3
S11359A00446144A906810B31A4601910295039470
S11359B0052917DC104B984702284FF000030CBF51
S11359C0089A1A4601A90B4880680C4CA04705B0F8
S11359D030BD4FF0800383F31188BFF36F8FBFF3A3
S11359E04F8FFEE7002301A9054CA047EFE70020F5
S11359F0EDE700BFC0E40020455700004548000023
S1135A006D4A00002DE9F04782B08046234B984749
S1135A100746234B5B6B984219D30023C8F8003028
S1135A201F4B5F63384602B0BDE8F0870021009148
S1135A300B46524620461B4CA04750B94FF08003FA
S1135A4083F31188BFF36F8FBFF34F8FFEE7144DBD
S1135A50154E6B681A68C2B1DB68D3F800A0DC6825
S1135A6004F104094846B047636A20469847E3694D
S1135A70012BEED1A36953449A45D7D263602461C4
S1135A8049466868094B9847E3E7054A116851603D
S1135A9013600123C8F80030C2E700BF6D51000055
S1135AA0C0E4002099590000AD4000007940000096
S1135AB02DE9F04786B0664C664FDFF8B891DFF801
S1135AC0B88163681A6872B1DB681D68624B9847D5
S1135AD003A8624B98470646039B002B7BD1A84240
S1135AE04CD200220EE05C4B984703A85B4B9847CE
S1135AF00646039B002B6ED123681A68B2FA82F221
S1135B0052090025A91BA068554B9847B84738B9D6
S1135B104FF08053C9F80030BFF34F8FBFF36F8F3E
S1135B20504D00231A4603A9A068A8470028C8D0EE
S1135B30039B002BF5DB059E73690BB1301DC04739
S1135B4002A8464B9847039B092BEAD801A252F8B6
S1135B5023F000BFDB5B0000DB5B0000DB5B0000CD
S1135B60235B0000235C0000495C0000DB5B000059
S1135B70DB5B0000235B0000235C0000B847636824
S1135B80DB68D3F80CA00AF10400C047DAF81C3033
S1135B90012B04D0DAF8243050469847C0E7DAF8ED
S1135BA018102B463246294450462F4EB047012840
S1135BB0F0D1002100910B462A4650462B4DA847B0
S1135BC00028E7D14FF0800383F31188BFF36F8F70
S1135BD0BFF34F8FFEE7B847A2E7049DB1692B4698
S1135BE0024629443046204DA847012898D1736ABB
S1135BF030469847F369012B92D1B2690021009194
S1135C000B46049802443046184DA847002887D113
S1135C104FF0800383F31188BFF36F8FBFF34F8F6F
S1135C20FEE70499B16131B10346024601443046AE
S1135C300D4DA84774E74FF0800383F31188BFF339
S1135C406F8FBFF34F8FFEE73046094B984767E7E6
S1135C50C0E400208552000059510000055A00009C
S1135C60214E00003D4C00009D5800009959000051
S1135C70CD44000004ED00E0AD40000070B50D4ED1
S1135C800D4CA41BA4100025A54209D10B4E0C4CAD
S1135C9001F0D2FAA41BA4100025A54205D170BDC1
S1135CA056F8253098470135EEE756F825309847E1
S1135CB00135F2E7447200004472000044720000AF
S1135CC04872000010B5431E0A44914200D110BD31
S1135CD011F8014B03F8014FF7E7024403469342DE
S1135CE000D1704703F8011BF9E700000FB40A4B19
